{
  "contractName": "SupplyChain",
  "abi": [
    {
      "inputs": [],
      "stateMutability": "payable",
      "type": "constructor",
      "payable": true
    },
    {
      "anonymous": false,
      "inputs": [
        {
          "indexed": true,
          "internalType": "address",
          "name": "account",
          "type": "address"
        }
      ],
      "name": "FarmerAdded",
      "type": "event"
    },
    {
      "anonymous": false,
      "inputs": [
        {
          "indexed": true,
          "internalType": "address",
          "name": "account",
          "type": "address"
        }
      ],
      "name": "FarmerRemoved",
      "type": "event"
    },
    {
      "anonymous": false,
      "inputs": [
        {
          "indexed": false,
          "internalType": "uint256",
          "name": "upc",
          "type": "uint256"
        }
      ],
      "name": "ForSale",
      "type": "event"
    },
    {
      "anonymous": false,
      "inputs": [
        {
          "indexed": false,
          "internalType": "uint256",
          "name": "upc",
          "type": "uint256"
        }
      ],
      "name": "Harvested",
      "type": "event"
    },
    {
      "anonymous": false,
      "inputs": [
        {
          "indexed": false,
          "internalType": "uint256",
          "name": "upc",
          "type": "uint256"
        }
      ],
      "name": "Packed",
      "type": "event"
    },
    {
      "anonymous": false,
      "inputs": [
        {
          "indexed": false,
          "internalType": "uint256",
          "name": "upc",
          "type": "uint256"
        }
      ],
      "name": "Processed",
      "type": "event"
    },
    {
      "anonymous": false,
      "inputs": [
        {
          "indexed": false,
          "internalType": "uint256",
          "name": "upc",
          "type": "uint256"
        }
      ],
      "name": "Purchased",
      "type": "event"
    },
    {
      "anonymous": false,
      "inputs": [
        {
          "indexed": false,
          "internalType": "uint256",
          "name": "upc",
          "type": "uint256"
        }
      ],
      "name": "Received",
      "type": "event"
    },
    {
      "anonymous": false,
      "inputs": [
        {
          "indexed": false,
          "internalType": "uint256",
          "name": "upc",
          "type": "uint256"
        }
      ],
      "name": "Shipped",
      "type": "event"
    },
    {
      "anonymous": false,
      "inputs": [
        {
          "indexed": false,
          "internalType": "uint256",
          "name": "upc",
          "type": "uint256"
        }
      ],
      "name": "Sold",
      "type": "event"
    },
    {
      "anonymous": false,
      "inputs": [
        {
          "indexed": true,
          "internalType": "address",
          "name": "oldOwner",
          "type": "address"
        },
        {
          "indexed": true,
          "internalType": "address",
          "name": "newOwner",
          "type": "address"
        }
      ],
      "name": "TransferOwnership",
      "type": "event"
    },
    {
      "anonymous": false,
      "inputs": [
        {
          "indexed": true,
          "internalType": "address",
          "name": "account",
          "type": "address"
        }
      ],
      "name": "addConsumerEvent",
      "type": "event"
    },
    {
      "anonymous": false,
      "inputs": [
        {
          "indexed": true,
          "internalType": "address",
          "name": "account",
          "type": "address"
        }
      ],
      "name": "addDistributorEvent",
      "type": "event"
    },
    {
      "anonymous": false,
      "inputs": [
        {
          "indexed": true,
          "internalType": "address",
          "name": "account",
          "type": "address"
        }
      ],
      "name": "addRetailerEvent",
      "type": "event"
    },
    {
      "anonymous": false,
      "inputs": [
        {
          "indexed": true,
          "internalType": "address",
          "name": "account",
          "type": "address"
        }
      ],
      "name": "removeConsumerEvent",
      "type": "event"
    },
    {
      "anonymous": false,
      "inputs": [
        {
          "indexed": true,
          "internalType": "address",
          "name": "account",
          "type": "address"
        }
      ],
      "name": "removeDistributorEvent",
      "type": "event"
    },
    {
      "anonymous": false,
      "inputs": [
        {
          "indexed": true,
          "internalType": "address",
          "name": "account",
          "type": "address"
        }
      ],
      "name": "removeRetailerEvent",
      "type": "event"
    },
    {
      "inputs": [],
      "name": "_owner",
      "outputs": [
        {
          "internalType": "address",
          "name": "",
          "type": "address"
        }
      ],
      "stateMutability": "view",
      "type": "function",
      "constant": true
    },
    {
      "inputs": [
        {
          "internalType": "address",
          "name": "account",
          "type": "address"
        }
      ],
      "name": "addConsumer",
      "outputs": [],
      "stateMutability": "nonpayable",
      "type": "function"
    },
    {
      "inputs": [
        {
          "internalType": "address",
          "name": "account",
          "type": "address"
        }
      ],
      "name": "addDistributor",
      "outputs": [],
      "stateMutability": "nonpayable",
      "type": "function"
    },
    {
      "inputs": [
        {
          "internalType": "address",
          "name": "account",
          "type": "address"
        }
      ],
      "name": "addFarmer",
      "outputs": [],
      "stateMutability": "nonpayable",
      "type": "function"
    },
    {
      "inputs": [
        {
          "internalType": "address",
          "name": "account",
          "type": "address"
        }
      ],
      "name": "addRetailer",
      "outputs": [],
      "stateMutability": "nonpayable",
      "type": "function"
    },
    {
      "inputs": [
        {
          "internalType": "address",
          "name": "account",
          "type": "address"
        }
      ],
      "name": "isConsumer",
      "outputs": [
        {
          "internalType": "bool",
          "name": "",
          "type": "bool"
        }
      ],
      "stateMutability": "view",
      "type": "function",
      "constant": true
    },
    {
      "inputs": [
        {
          "internalType": "address",
          "name": "account",
          "type": "address"
        }
      ],
      "name": "isDistributor",
      "outputs": [
        {
          "internalType": "bool",
          "name": "",
          "type": "bool"
        }
      ],
      "stateMutability": "view",
      "type": "function",
      "constant": true
    },
    {
      "inputs": [
        {
          "internalType": "address",
          "name": "account",
          "type": "address"
        }
      ],
      "name": "isFarmer",
      "outputs": [
        {
          "internalType": "bool",
          "name": "",
          "type": "bool"
        }
      ],
      "stateMutability": "view",
      "type": "function",
      "constant": true
    },
    {
      "inputs": [],
      "name": "isOwner",
      "outputs": [
        {
          "internalType": "bool",
          "name": "",
          "type": "bool"
        }
      ],
      "stateMutability": "view",
      "type": "function",
      "constant": true
    },
    {
      "inputs": [
        {
          "internalType": "address",
          "name": "account",
          "type": "address"
        }
      ],
      "name": "isRetailer",
      "outputs": [
        {
          "internalType": "bool",
          "name": "",
          "type": "bool"
        }
      ],
      "stateMutability": "view",
      "type": "function",
      "constant": true
    },
    {
      "inputs": [],
      "name": "renounceConsumer",
      "outputs": [],
      "stateMutability": "nonpayable",
      "type": "function"
    },
    {
      "inputs": [],
      "name": "renounceDistributor",
      "outputs": [],
      "stateMutability": "nonpayable",
      "type": "function"
    },
    {
      "inputs": [],
      "name": "renounceFarmer",
      "outputs": [],
      "stateMutability": "nonpayable",
      "type": "function"
    },
    {
      "inputs": [],
      "name": "renounceOwnership",
      "outputs": [],
      "stateMutability": "nonpayable",
      "type": "function"
    },
    {
      "inputs": [],
      "name": "renounceRetailer",
      "outputs": [],
      "stateMutability": "nonpayable",
      "type": "function"
    },
    {
      "inputs": [
        {
          "internalType": "address",
          "name": "newOwner",
          "type": "address"
        }
      ],
      "name": "transferOwnership",
      "outputs": [],
      "stateMutability": "nonpayable",
      "type": "function"
    },
    {
      "inputs": [
        {
          "internalType": "uint256",
          "name": "_upc",
          "type": "uint256"
        },
        {
          "internalType": "address",
          "name": "_originFarmerID",
          "type": "address"
        },
        {
          "internalType": "string",
          "name": "_originFarmName",
          "type": "string"
        },
        {
          "internalType": "string",
          "name": "_originFarmInformation",
          "type": "string"
        },
        {
          "internalType": "string",
          "name": "_originFarmLatitude",
          "type": "string"
        },
        {
          "internalType": "string",
          "name": "_originFarmLongitude",
          "type": "string"
        },
        {
          "internalType": "string",
          "name": "_productNotes",
          "type": "string"
        }
      ],
      "name": "harvestItem",
      "outputs": [],
      "stateMutability": "nonpayable",
      "type": "function"
    },
    {
      "inputs": [
        {
          "internalType": "uint256",
          "name": "_upc",
          "type": "uint256"
        }
      ],
      "name": "processItem",
      "outputs": [],
      "stateMutability": "nonpayable",
      "type": "function"
    },
    {
      "inputs": [
        {
          "internalType": "uint256",
          "name": "_upc",
          "type": "uint256"
        }
      ],
      "name": "packItem",
      "outputs": [],
      "stateMutability": "nonpayable",
      "type": "function"
    },
    {
      "inputs": [
        {
          "internalType": "uint256",
          "name": "_upc",
          "type": "uint256"
        },
        {
          "internalType": "uint256",
          "name": "_price",
          "type": "uint256"
        }
      ],
      "name": "sellItem",
      "outputs": [],
      "stateMutability": "nonpayable",
      "type": "function"
    },
    {
      "inputs": [
        {
          "internalType": "uint256",
          "name": "_upc",
          "type": "uint256"
        }
      ],
      "name": "buyItem",
      "outputs": [],
      "stateMutability": "payable",
      "type": "function",
      "payable": true
    },
    {
      "inputs": [
        {
          "internalType": "uint256",
          "name": "_upc",
          "type": "uint256"
        }
      ],
      "name": "shipItem",
      "outputs": [],
      "stateMutability": "nonpayable",
      "type": "function"
    },
    {
      "inputs": [
        {
          "internalType": "uint256",
          "name": "_upc",
          "type": "uint256"
        }
      ],
      "name": "receiveItem",
      "outputs": [],
      "stateMutability": "nonpayable",
      "type": "function"
    },
    {
      "inputs": [
        {
          "internalType": "uint256",
          "name": "_upc",
          "type": "uint256"
        }
      ],
      "name": "purchaseItem",
      "outputs": [],
      "stateMutability": "nonpayable",
      "type": "function"
    },
    {
      "inputs": [
        {
          "internalType": "uint256",
          "name": "_upc",
          "type": "uint256"
        }
      ],
      "name": "fetchItemBufferOne",
      "outputs": [
        {
          "internalType": "uint256",
          "name": "itemSKU",
          "type": "uint256"
        },
        {
          "internalType": "uint256",
          "name": "itemUPC",
          "type": "uint256"
        },
        {
          "internalType": "address",
          "name": "ownerID",
          "type": "address"
        },
        {
          "internalType": "address",
          "name": "originFarmerID",
          "type": "address"
        },
        {
          "internalType": "string",
          "name": "originFarmName",
          "type": "string"
        },
        {
          "internalType": "string",
          "name": "originFarmInformation",
          "type": "string"
        },
        {
          "internalType": "string",
          "name": "originFarmLatitude",
          "type": "string"
        },
        {
          "internalType": "string",
          "name": "originFarmLongitude",
          "type": "string"
        }
      ],
      "stateMutability": "view",
      "type": "function",
      "constant": true
    },
    {
      "inputs": [
        {
          "internalType": "uint256",
          "name": "_upc",
          "type": "uint256"
        }
      ],
      "name": "fetchItemBufferTwo",
      "outputs": [
        {
          "internalType": "uint256",
          "name": "itemSKU",
          "type": "uint256"
        },
        {
          "internalType": "uint256",
          "name": "itemUPC",
          "type": "uint256"
        },
        {
          "internalType": "uint256",
          "name": "productID",
          "type": "uint256"
        },
        {
          "internalType": "string",
          "name": "productNotes",
          "type": "string"
        },
        {
          "internalType": "uint256",
          "name": "productPrice",
          "type": "uint256"
        },
        {
          "internalType": "uint256",
          "name": "itemState",
          "type": "uint256"
        },
        {
          "internalType": "address",
          "name": "distributorID",
          "type": "address"
        },
        {
          "internalType": "address",
          "name": "retailerID",
          "type": "address"
        },
        {
          "internalType": "address",
          "name": "consumerID",
          "type": "address"
        }
      ],
      "stateMutability": "view",
      "type": "function",
      "constant": true
    }
  ],
  "bytecode": "0x6080604052336000806101000a81548173ffffffffffffffffffffffffffffffffffffffff021916908373ffffffffffffffffffffffffffffffffffffffff16021790555060008054906101000a900473ffffffffffffffffffffffffffffffffffffffff1673ffffffffffffffffffffffffffffffffffffffff16600073ffffffffffffffffffffffffffffffffffffffff167f5c486528ec3e3f0ea91181cff8116f02bfa350e03b8b6f12e00765adbb5af85c60405160405180910390a3620000d0336200011960201b60201c565b620000e1336200017a60201b60201c565b620000f233620001db60201b60201c565b62000103336200023c60201b60201c565b60016007819055506001600681905550620003e6565b620001348160016200029d60201b620021f71790919060201c565b8073ffffffffffffffffffffffffffffffffffffffff167f2e0ded4123377a3c2bc9a26f1717655a129e2f20752924d42e730ec89c83dbd060405160405180910390a250565b620001958160026200029d60201b620021f71790919060201c565b8073ffffffffffffffffffffffffffffffffffffffff167ff0b5e676502ea7d5dca488f033afed1c97cfbbb7520ec92d064bbbab0dca2aa160405160405180910390a250565b620001f68160036200029d60201b620021f71790919060201c565b8073ffffffffffffffffffffffffffffffffffffffff167fe3cccf40aef83bed480ccf9433aaee3f3e9466c6d8457bbc2e1ded74d4fb372e60405160405180910390a250565b620002578160046200029d60201b620021f71790919060201c565b8073ffffffffffffffffffffffffffffffffffffffff167f5a20d3b3824651b47770ecd040ee5c21dd35d3bed301a7d7f902c5d98337f53b60405160405180910390a250565b600073ffffffffffffffffffffffffffffffffffffffff168173ffffffffffffffffffffffffffffffffffffffff161415620002d857600080fd5b620002ea82826200035360201b60201c565b15620002f557600080fd5b60018260000160008373ffffffffffffffffffffffffffffffffffffffff1673ffffffffffffffffffffffffffffffffffffffff16815260200190815260200160002060006101000a81548160ff0219169083151502179055505050565b60008073ffffffffffffffffffffffffffffffffffffffff168273ffffffffffffffffffffffffffffffffffffffff1614156200038f57600080fd5b8260000160008373ffffffffffffffffffffffffffffffffffffffff1673ffffffffffffffffffffffffffffffffffffffff16815260200190815260200160002060009054906101000a900460ff16905092915050565b61348c80620003f66000396000f3fe6080604052600436106101815760003560e01c80638ec4f505116100d1578063bdd8a6a81161008a578063e7fb74c711610064578063e7fb74c71461053d578063f2fde38b14610559578063f30fc48014610582578063f61c899a146105ab57610181565b8063bdd8a6a8146104d4578063d38ea5bf146104fd578063db0e6a2f1461052657610181565b80638ec4f505146103b25780638f0c86fa146103db5780638f32d59b14610418578063a26be99914610443578063b2bdfa7b1461046c578063b94290691461049757610181565b806366225ff91161013e57806377c459131161011857806377c45913146102f157806380c3f96d1461033557806380fc0ce41461035e578063834ff7391461037557610181565b806366225ff91461026c578063715018a6146102b15780637250e224146102c857610181565b8063112940f9146101865780632d923561146101af57806349dae766146101d85780635da09b881461020157806361e6982d1461023e578063644241db14610255575b600080fd5b34801561019257600080fd5b506101ad60048036038101906101a89190612912565b6105d4565b005b3480156101bb57600080fd5b506101d660048036038101906101d19190612a7a565b610628565b005b3480156101e457600080fd5b506101ff60048036038101906101fa919061293b565b61082b565b005b34801561020d57600080fd5b5061022860048036038101906102239190612912565b610a12565b6040516102359190612ec3565b60405180910390f35b34801561024a57600080fd5b50610253610a2f565b005b34801561026157600080fd5b5061026a610a3a565b005b34801561027857600080fd5b50610293600480360381019061028e919061293b565b610a45565b6040516102a899989796959493929190613133565b60405180910390f35b3480156102bd57600080fd5b506102c6610c6f565b005b3480156102d457600080fd5b506102ef60048036038101906102ea9190612912565b610d74565b005b3480156102fd57600080fd5b506103186004803603810190610313919061293b565b610dc8565b60405161032c989796959493929190613099565b60405180910390f35b34801561034157600080fd5b5061035c60048036038101906103579190612912565b611107565b005b34801561036a57600080fd5b5061037361115b565b005b34801561038157600080fd5b5061039c60048036038101906103979190612912565b611166565b6040516103a99190612ec3565b60405180910390f35b3480156103be57600080fd5b506103d960048036038101906103d49190612912565b611183565b005b3480156103e757600080fd5b5061040260048036038101906103fd9190612912565b6111d7565b60405161040f9190612ec3565b60405180910390f35b34801561042457600080fd5b5061042d6111f4565b60405161043a9190612ec3565b60405180910390f35b34801561044f57600080fd5b5061046a6004803603810190610465919061293b565b61124b565b005b34801561047857600080fd5b506104816114b4565b60405161048e9190612ea8565b60405180910390f35b3480156104a357600080fd5b506104be60048036038101906104b99190612912565b6114dd565b6040516104cb9190612ec3565b60405180910390f35b3480156104e057600080fd5b506104fb60048036038101906104f69190612964565b6114fa565b005b34801561050957600080fd5b50610524600480360381019061051f919061293b565b6117dd565b005b34801561053257600080fd5b5061053b611a46565b005b6105576004803603810190610552919061293b565b611a51565b005b34801561056557600080fd5b50610580600480360381019061057b9190612912565b611dd6565b005b34801561058e57600080fd5b506105a960048036038101906105a4919061293b565b611e29565b005b3480156105b757600080fd5b506105d260048036038101906105cd919061293b565b612010565b005b6105dd33611166565b61061c576040517f08c379a000000000000000000000000000000000000000000000000000000000815260040161061390612fbe565b60405180910390fd5b610625816122a3565b50565b8160026007811115610663577f4e487b7100000000000000000000000000000000000000000000000000000000600052602160045260246000fd5b60086000838152602001908152602001600020600b0160009054906101000a900460ff1660078111156106bf577f4e487b7100000000000000000000000000000000000000000000000000000000600052602160045260246000fd5b146106ff576040517f08c379a00000000000000000000000000000000000000000000000000000000081526004016106f690612efe565b60405180910390fd5b6008600084815260200190815260200160002060030160009054906101000a900473ffffffffffffffffffffffffffffffffffffffff168073ffffffffffffffffffffffffffffffffffffffff163373ffffffffffffffffffffffffffffffffffffffff161461076e57600080fd5b600360086000868152602001908152602001600020600b0160006101000a81548160ff021916908360078111156107ce577f4e487b7100000000000000000000000000000000000000000000000000000000600052602160045260246000fd5b02179055508260086000868152602001908152602001600020600a01819055507fa96ae0fc3224ebd79eebfe54bd130cc9cb94416cddd1f2386115e00b725324688460405161081d919061307e565b60405180910390a150505050565b8060006007811115610866577f4e487b7100000000000000000000000000000000000000000000000000000000600052602160045260246000fd5b60086000838152602001908152602001600020600b0160009054906101000a900460ff1660078111156108c2577f4e487b7100000000000000000000000000000000000000000000000000000000600052602160045260246000fd5b14610902576040517f08c379a00000000000000000000000000000000000000000000000000000000081526004016108f990612ffe565b60405180910390fd5b6008600083815260200190815260200160002060030160009054906101000a900473ffffffffffffffffffffffffffffffffffffffff168073ffffffffffffffffffffffffffffffffffffffff163373ffffffffffffffffffffffffffffffffffffffff161461097157600080fd5b600160086000858152602001908152602001600020600b0160006101000a81548160ff021916908360078111156109d1577f4e487b7100000000000000000000000000000000000000000000000000000000600052602160045260246000fd5b02179055507f5afe3b1bf87069693c075da5c22a98d63d1aef98a30dbbe538d0781a98b77ee583604051610a05919061307e565b60405180910390a1505050565b6000610a288260036122fd90919063ffffffff16565b9050919050565b610a383361238f565b565b610a43336123e9565b565b600080600060606000806000806000600860008b8152602001908152602001600020600001549850600860008b8152602001908152602001600020600101549750600860008b8152602001908152602001600020600801549650600860008b81526020019081526020016000206009018054610ac090613358565b80601f0160208091040260200160405190810160405280929190818152602001828054610aec90613358565b8015610b395780601f10610b0e57610100808354040283529160200191610b39565b820191906000526020600020905b815481529060010190602001808311610b1c57829003601f168201915b50505050509550600860008b8152602001908152602001600020600a01549450600860008b8152602001908152602001600020600b0160009054906101000a900460ff166007811115610bb5577f4e487b7100000000000000000000000000000000000000000000000000000000600052602160045260246000fd5b9350600860008b8152602001908152602001600020600b0160019054906101000a900473ffffffffffffffffffffffffffffffffffffffff169250600860008b8152602001908152602001600020600c0160009054906101000a900473ffffffffffffffffffffffffffffffffffffffff169150600860008b8152602001908152602001600020600d0160009054906101000a900473ffffffffffffffffffffffffffffffffffffffff1690509193959799909294969850565b610c776111f4565b610cb6576040517f08c379a0000000000000000000000000000000000000000000000000000000008152600401610cad9061305e565b60405180910390fd5b600073ffffffffffffffffffffffffffffffffffffffff1660008054906101000a900473ffffffffffffffffffffffffffffffffffffffff1673ffffffffffffffffffffffffffffffffffffffff167f5c486528ec3e3f0ea91181cff8116f02bfa350e03b8b6f12e00765adbb5af85c60405160405180910390a360008060006101000a81548173ffffffffffffffffffffffffffffffffffffffff021916908373ffffffffffffffffffffffffffffffffffffffff160217905550565b610d7d336111d7565b610dbc576040517f08c379a0000000000000000000000000000000000000000000000000000000008152600401610db390612ede565b60405180910390fd5b610dc581612443565b50565b600080600080606080606080600860008a8152602001908152602001600020600001549750600860008a8152602001908152602001600020600101549650600860008a815260200190815260200160002060020160009054906101000a900473ffffffffffffffffffffffffffffffffffffffff169550600860008a815260200190815260200160002060030160009054906101000a900473ffffffffffffffffffffffffffffffffffffffff169450600860008a81526020019081526020016000206004018054610e9990613358565b80601f0160208091040260200160405190810160405280929190818152602001828054610ec590613358565b8015610f125780601f10610ee757610100808354040283529160200191610f12565b820191906000526020600020905b815481529060010190602001808311610ef557829003601f168201915b50505050509350600860008a81526020019081526020016000206005018054610f3a90613358565b80601f0160208091040260200160405190810160405280929190818152602001828054610f6690613358565b8015610fb35780601f10610f8857610100808354040283529160200191610fb3565b820191906000526020600020905b815481529060010190602001808311610f9657829003601f168201915b50505050509250600860008a81526020019081526020016000206006018054610fdb90613358565b80601f016020809104026020016040519081016040528092919081815260200182805461100790613358565b80156110545780601f1061102957610100808354040283529160200191611054565b820191906000526020600020905b81548152906001019060200180831161103757829003601f168201915b50505050509150600860008a8152602001908152602001600020600701805461107c90613358565b80601f01602080910402602001604051908101604052809291908181526020018280546110a890613358565b80156110f55780601f106110ca576101008083540402835291602001916110f5565b820191906000526020600020905b8154815290600101906020018083116110d857829003601f168201915b50505050509050919395975091939597565b611110336114dd565b61114f576040517f08c379a000000000000000000000000000000000000000000000000000000000815260040161114690612fde565b60405180910390fd5b6111588161249d565b50565b611164336124f7565b565b600061117c8260046122fd90919063ffffffff16565b9050919050565b61118c33610a12565b6111cb576040517f08c379a00000000000000000000000000000000000000000000000000000000081526004016111c290612f9e565b60405180910390fd5b6111d481612551565b50565b60006111ed8260026122fd90919063ffffffff16565b9050919050565b60008060009054906101000a900473ffffffffffffffffffffffffffffffffffffffff1673ffffffffffffffffffffffffffffffffffffffff163373ffffffffffffffffffffffffffffffffffffffff1614905090565b8060056007811115611286577f4e487b7100000000000000000000000000000000000000000000000000000000600052602160045260246000fd5b60086000838152602001908152602001600020600b0160009054906101000a900460ff1660078111156112e2577f4e487b7100000000000000000000000000000000000000000000000000000000600052602160045260246000fd5b14611322576040517f08c379a000000000000000000000000000000000000000000000000000000000815260040161131990612f1e565b60405180910390fd5b61132b33610a12565b61136a576040517f08c379a000000000000000000000000000000000000000000000000000000000815260040161136190612f9e565b60405180910390fd5b336008600084815260200190815260200160002060020160006101000a81548173ffffffffffffffffffffffffffffffffffffffff021916908373ffffffffffffffffffffffffffffffffffffffff1602179055503360086000848152602001908152602001600020600c0160006101000a81548173ffffffffffffffffffffffffffffffffffffffff021916908373ffffffffffffffffffffffffffffffffffffffff160217905550600660086000848152602001908152602001600020600b0160006101000a81548160ff02191690836007811115611474577f4e487b7100000000000000000000000000000000000000000000000000000000600052602160045260246000fd5b02179055507fa8142743f8f70a4c26f3691cf4ed59718381fb2f18070ec52be1f1022d855557826040516114a8919061307e565b60405180910390a15050565b60008060009054906101000a900473ffffffffffffffffffffffffffffffffffffffff16905090565b60006114f38260016122fd90919063ffffffff16565b9050919050565b611503336114dd565b611542576040517f08c379a000000000000000000000000000000000000000000000000000000000815260040161153990612fde565b60405180910390fd5b8660086000898152602001908152602001600020600101819055506007546008600089815260200190815260200160002060000181905550856008600089815260200190815260200160002060020160006101000a81548173ffffffffffffffffffffffffffffffffffffffff021916908373ffffffffffffffffffffffffffffffffffffffff160217905550856008600089815260200190815260200160002060030160006101000a81548173ffffffffffffffffffffffffffffffffffffffff021916908373ffffffffffffffffffffffffffffffffffffffff1602179055508460086000898152602001908152602001600020600401908051906020019061164e9291906127dd565b50836008600089815260200190815260200160002060050190805190602001906116799291906127dd565b50826008600089815260200190815260200160002060060190805190602001906116a49291906127dd565b50816008600089815260200190815260200160002060070190805190602001906116cf9291906127dd565b50600754876116de9190613244565b6008600089815260200190815260200160002060080181905550806008600089815260200190815260200160002060090190805190602001906117229291906127dd565b50600060086000898152602001908152602001600020600b0160006101000a81548160ff02191690836007811115611783577f4e487b7100000000000000000000000000000000000000000000000000000000600052602160045260246000fd5b021790555060016007546117979190613244565b6007819055507f8e55ccfc9778ff8eba1646d765cf1982537ce0f9257054a17b48aad745250183876040516117cc919061307e565b60405180910390a150505050505050565b8060066007811115611818577f4e487b7100000000000000000000000000000000000000000000000000000000600052602160045260246000fd5b60086000838152602001908152602001600020600b0160009054906101000a900460ff166007811115611874577f4e487b7100000000000000000000000000000000000000000000000000000000600052602160045260246000fd5b146118b4576040517f08c379a00000000000000000000000000000000000000000000000000000000081526004016118ab90612f3e565b60405180910390fd5b6118bd33611166565b6118fc576040517f08c379a00000000000000000000000000000000000000000000000000000000081526004016118f390612fbe565b60405180910390fd5b336008600084815260200190815260200160002060020160006101000a81548173ffffffffffffffffffffffffffffffffffffffff021916908373ffffffffffffffffffffffffffffffffffffffff1602179055503360086000848152602001908152602001600020600d0160006101000a81548173ffffffffffffffffffffffffffffffffffffffff021916908373ffffffffffffffffffffffffffffffffffffffff160217905550600760086000848152602001908152602001600020600b0160006101000a81548160ff02191690836007811115611a06577f4e487b7100000000000000000000000000000000000000000000000000000000600052602160045260246000fd5b02179055507f653d56639fee6b566a5c804764e9689de38645f0b733df89a36a1b7b42173dd882604051611a3a919061307e565b60405180910390a15050565b611a4f336125ab565b565b8060036007811115611a8c577f4e487b7100000000000000000000000000000000000000000000000000000000600052602160045260246000fd5b60086000838152602001908152602001600020600b0160009054906101000a900460ff166007811115611ae8577f4e487b7100000000000000000000000000000000000000000000000000000000600052602160045260246000fd5b14611b28576040517f08c379a0000000000000000000000000000000000000000000000000000000008152600401611b1f9061303e565b60405180910390fd5b60086000838152602001908152602001600020600a015480341015611b4c57600080fd5b82336008600086815260200190815260200160002060020160006101000a81548173ffffffffffffffffffffffffffffffffffffffff021916908373ffffffffffffffffffffffffffffffffffffffff1602179055503360086000868152602001908152602001600020600b0160016101000a81548173ffffffffffffffffffffffffffffffffffffffff021916908373ffffffffffffffffffffffffffffffffffffffff160217905550600460086000868152602001908152602001600020600b0160006101000a81548160ff02191690836007811115611c57577f4e487b7100000000000000000000000000000000000000000000000000000000600052602160045260246000fd5b021790555060086000858152602001908152602001600020600b0160019054906101000a900473ffffffffffffffffffffffffffffffffffffffff1673ffffffffffffffffffffffffffffffffffffffff166108fc60086000878152602001908152602001600020600a01549081150290604051600060405180830381858888f19350505050158015611cee573d6000803e3d6000fd5b507f92f64ca637d023f354075a4be751b169c1a8a9ccb6d33cdd0cb352054399572784604051611d1e919061307e565b60405180910390a1600060086000838152602001908152602001600020600a0154905060008134611d4f919061329a565b905060086000848152602001908152602001600020600d0160009054906101000a900473ffffffffffffffffffffffffffffffffffffffff1673ffffffffffffffffffffffffffffffffffffffff166108fc829081150290604051600060405180830381858888f19350505050158015611dcd573d6000803e3d6000fd5b50505050505050565b611dde6111f4565b611e1d576040517f08c379a0000000000000000000000000000000000000000000000000000000008152600401611e149061305e565b60405180910390fd5b611e2681612605565b50565b8060016007811115611e64577f4e487b7100000000000000000000000000000000000000000000000000000000600052602160045260246000fd5b60086000838152602001908152602001600020600b0160009054906101000a900460ff166007811115611ec0577f4e487b7100000000000000000000000000000000000000000000000000000000600052602160045260246000fd5b14611f00576040517f08c379a0000000000000000000000000000000000000000000000000000000008152600401611ef79061301e565b60405180910390fd5b6008600083815260200190815260200160002060030160009054906101000a900473ffffffffffffffffffffffffffffffffffffffff168073ffffffffffffffffffffffffffffffffffffffff163373ffffffffffffffffffffffffffffffffffffffff1614611f6f57600080fd5b600260086000858152602001908152602001600020600b0160006101000a81548160ff02191690836007811115611fcf577f4e487b7100000000000000000000000000000000000000000000000000000000600052602160045260246000fd5b02179055507f9b3b66e2380b690bae22c73ef1428fb0c91e72fe14a4b6defa13035214187aff83604051612003919061307e565b60405180910390a1505050565b806004600781111561204b577f4e487b7100000000000000000000000000000000000000000000000000000000600052602160045260246000fd5b60086000838152602001908152602001600020600b0160009054906101000a900460ff1660078111156120a7577f4e487b7100000000000000000000000000000000000000000000000000000000600052602160045260246000fd5b146120e7576040517f08c379a00000000000000000000000000000000000000000000000000000000081526004016120de90612f5e565b60405180910390fd5b60086000838152602001908152602001600020600b0160019054906101000a900473ffffffffffffffffffffffffffffffffffffffff168073ffffffffffffffffffffffffffffffffffffffff163373ffffffffffffffffffffffffffffffffffffffff161461215657600080fd5b600560086000858152602001908152602001600020600b0160006101000a81548160ff021916908360078111156121b6577f4e487b7100000000000000000000000000000000000000000000000000000000600052602160045260246000fd5b02179055507ff00b9a5725b80c54016f42114f6ed7792d22eecb116011c4afac29c57bef6c95836040516121ea919061307e565b60405180910390a1505050565b600073ffffffffffffffffffffffffffffffffffffffff168173ffffffffffffffffffffffffffffffffffffffff16141561223157600080fd5b61223b82826122fd565b1561224557600080fd5b60018260000160008373ffffffffffffffffffffffffffffffffffffffff1673ffffffffffffffffffffffffffffffffffffffff16815260200190815260200160002060006101000a81548160ff0219169083151502179055505050565b6122b78160046121f790919063ffffffff16565b8073ffffffffffffffffffffffffffffffffffffffff167f5a20d3b3824651b47770ecd040ee5c21dd35d3bed301a7d7f902c5d98337f53b60405160405180910390a250565b60008073ffffffffffffffffffffffffffffffffffffffff168273ffffffffffffffffffffffffffffffffffffffff16141561233857600080fd5b8260000160008373ffffffffffffffffffffffffffffffffffffffff1673ffffffffffffffffffffffffffffffffffffffff16815260200190815260200160002060009054906101000a900460ff16905092915050565b6123a381600461273290919063ffffffff16565b8073ffffffffffffffffffffffffffffffffffffffff167f1da16177cedb6900b16a42747a75753ac25beb95b8b023fa6dc57779f3bc8a3d60405160405180910390a250565b6123fd81600261273290919063ffffffff16565b8073ffffffffffffffffffffffffffffffffffffffff167f7d7718cc15f78e8c0b50c35836bb9d4473a200d10c01462b2c8601d04998aab260405160405180910390a250565b6124578160026121f790919063ffffffff16565b8073ffffffffffffffffffffffffffffffffffffffff167ff0b5e676502ea7d5dca488f033afed1c97cfbbb7520ec92d064bbbab0dca2aa160405160405180910390a250565b6124b18160016121f790919063ffffffff16565b8073ffffffffffffffffffffffffffffffffffffffff167f2e0ded4123377a3c2bc9a26f1717655a129e2f20752924d42e730ec89c83dbd060405160405180910390a250565b61250b81600161273290919063ffffffff16565b8073ffffffffffffffffffffffffffffffffffffffff167fa5e0f060af304ab17dd418c7927e3da3ae7868189bf387aee09ab179ccc572f260405160405180910390a250565b6125658160036121f790919063ffffffff16565b8073ffffffffffffffffffffffffffffffffffffffff167fe3cccf40aef83bed480ccf9433aaee3f3e9466c6d8457bbc2e1ded74d4fb372e60405160405180910390a250565b6125bf81600361273290919063ffffffff16565b8073ffffffffffffffffffffffffffffffffffffffff167f0f50ce09c3a3024d3391f8cc7c891ec276235e5730a7b227af483f6581e1890a60405160405180910390a250565b600073ffffffffffffffffffffffffffffffffffffffff168173ffffffffffffffffffffffffffffffffffffffff161415612675576040517f08c379a000000000000000000000000000000000000000000000000000000000815260040161266c90612f7e565b60405180910390fd5b8073ffffffffffffffffffffffffffffffffffffffff1660008054906101000a900473ffffffffffffffffffffffffffffffffffffffff1673ffffffffffffffffffffffffffffffffffffffff167f5c486528ec3e3f0ea91181cff8116f02bfa350e03b8b6f12e00765adbb5af85c60405160405180910390a3806000806101000a81548173ffffffffffffffffffffffffffffffffffffffff021916908373ffffffffffffffffffffffffffffffffffffffff16021790555050565b600073ffffffffffffffffffffffffffffffffffffffff168173ffffffffffffffffffffffffffffffffffffffff16141561276c57600080fd5b61277682826122fd565b61277f57600080fd5b60008260000160008373ffffffffffffffffffffffffffffffffffffffff1673ffffffffffffffffffffffffffffffffffffffff16815260200190815260200160002060006101000a81548160ff0219169083151502179055505050565b8280546127e990613358565b90600052602060002090601f01602090048101928261280b5760008555612852565b82601f1061282457805160ff1916838001178555612852565b82800160010185558215612852579182015b82811115612851578251825591602001919060010190612836565b5b50905061285f9190612863565b5090565b5b8082111561287c576000816000905550600101612864565b5090565b600061289361288e846131f8565b6131c7565b9050828152602081018484840111156128ab57600080fd5b6128b6848285613316565b509392505050565b6000813590506128cd81613428565b92915050565b600082601f8301126128e457600080fd5b81356128f4848260208601612880565b91505092915050565b60008135905061290c8161343f565b92915050565b60006020828403121561292457600080fd5b6000612932848285016128be565b91505092915050565b60006020828403121561294d57600080fd5b600061295b848285016128fd565b91505092915050565b600080600080600080600060e0888a03121561297f57600080fd5b600061298d8a828b016128fd565b975050602061299e8a828b016128be565b965050604088013567ffffffffffffffff8111156129bb57600080fd5b6129c78a828b016128d3565b955050606088013567ffffffffffffffff8111156129e457600080fd5b6129f08a828b016128d3565b945050608088013567ffffffffffffffff811115612a0d57600080fd5b612a198a828b016128d3565b93505060a088013567ffffffffffffffff811115612a3657600080fd5b612a428a828b016128d3565b92505060c088013567ffffffffffffffff811115612a5f57600080fd5b612a6b8a828b016128d3565b91505092959891949750929550565b60008060408385031215612a8d57600080fd5b6000612a9b858286016128fd565b9250506020612aac858286016128fd565b9150509250929050565b612abf816132ce565b82525050565b612ace816132e0565b82525050565b6000612adf82613228565b612ae98185613233565b9350612af9818560208601613325565b612b0281613417565b840191505092915050565b6000612b1a602583613233565b91507f596f7520646f6e2774206861766520746865206469737472696275746f72206160008301527f63636573730000000000000000000000000000000000000000000000000000006020830152604082019050919050565b6000612b80600f83613233565b91507f4974656d206e6f74207061636b656400000000000000000000000000000000006000830152602082019050919050565b6000612bc0601083613233565b91507f4974656d206e6f742073686970706564000000000000000000000000000000006000830152602082019050919050565b6000612c00601183613233565b91507f4974656d206e6f742072656365697665640000000000000000000000000000006000830152602082019050919050565b6000612c40600d83613233565b91507f4974656d206e6f7420736f6c64000000000000000000000000000000000000006000830152602082019050919050565b6000612c80601783613233565b91507f496e76616c6964206164647265737320656e74657265640000000000000000006000830152602082019050919050565b6000612cc0601e83613233565b91507f596f7520646f6e277420686176652072657461696c65722061636365737300006000830152602082019050919050565b6000612d00601e83613233565b91507f596f7520646f6e2774206861766520636f6e73756d65722061636365737300006000830152602082019050919050565b6000612d40602083613233565b91507f596f7520646f6e2774206861766520746865206661726d6572206163636573736000830152602082019050919050565b6000612d80601283613233565b91507f4974656d206e6f742068617276657374656400000000000000000000000000006000830152602082019050919050565b6000612dc0601283613233565b91507f4974656d206e6f742070726f63657373656400000000000000000000000000006000830152602082019050919050565b6000612e00601183613233565b91507f4974656d206e6f7420666f722073616c650000000000000000000000000000006000830152602082019050919050565b6000612e40602b83613233565b91507f546869732063616e206f6e6c7920626520646f6e652062792074686520636f6e60008301527f7472616374206f776e65720000000000000000000000000000000000000000006020830152604082019050919050565b612ea28161330c565b82525050565b6000602082019050612ebd6000830184612ab6565b92915050565b6000602082019050612ed86000830184612ac5565b92915050565b60006020820190508181036000830152612ef781612b0d565b9050919050565b60006020820190508181036000830152612f1781612b73565b9050919050565b60006020820190508181036000830152612f3781612bb3565b9050919050565b60006020820190508181036000830152612f5781612bf3565b9050919050565b60006020820190508181036000830152612f7781612c33565b9050919050565b60006020820190508181036000830152612f9781612c73565b9050919050565b60006020820190508181036000830152612fb781612cb3565b9050919050565b60006020820190508181036000830152612fd781612cf3565b9050919050565b60006020820190508181036000830152612ff781612d33565b9050919050565b6000602082019050818103600083015261301781612d73565b9050919050565b6000602082019050818103600083015261303781612db3565b9050919050565b6000602082019050818103600083015261305781612df3565b9050919050565b6000602082019050818103600083015261307781612e33565b9050919050565b60006020820190506130936000830184612e99565b92915050565b6000610100820190506130af600083018b612e99565b6130bc602083018a612e99565b6130c96040830189612ab6565b6130d66060830188612ab6565b81810360808301526130e88187612ad4565b905081810360a08301526130fc8186612ad4565b905081810360c08301526131108185612ad4565b905081810360e08301526131248184612ad4565b90509998505050505050505050565b600061012082019050613149600083018c612e99565b613156602083018b612e99565b613163604083018a612e99565b81810360608301526131758189612ad4565b90506131846080830188612e99565b61319160a0830187612e99565b61319e60c0830186612ab6565b6131ab60e0830185612ab6565b6131b9610100830184612ab6565b9a9950505050505050505050565b6000604051905081810181811067ffffffffffffffff821117156131ee576131ed6133e8565b5b8060405250919050565b600067ffffffffffffffff821115613213576132126133e8565b5b601f19601f8301169050602081019050919050565b600081519050919050565b600082825260208201905092915050565b600061324f8261330c565b915061325a8361330c565b9250827fffffffffffffffffffffffffffffffffffffffffffffffffffffffffffffffff0382111561328f5761328e61338a565b5b828201905092915050565b60006132a58261330c565b91506132b08361330c565b9250828210156132c3576132c261338a565b5b828203905092915050565b60006132d9826132ec565b9050919050565b60008115159050919050565b600073ffffffffffffffffffffffffffffffffffffffff82169050919050565b6000819050919050565b82818337600083830152505050565b60005b83811015613343578082015181840152602081019050613328565b83811115613352576000848401525b50505050565b6000600282049050600182168061337057607f821691505b60208210811415613384576133836133b9565b5b50919050565b7f4e487b7100000000000000000000000000000000000000000000000000000000600052601160045260246000fd5b7f4e487b7100000000000000000000000000000000000000000000000000000000600052602260045260246000fd5b7f4e487b7100000000000000000000000000000000000000000000000000000000600052604160045260246000fd5b6000601f19601f8301169050919050565b613431816132ce565b811461343c57600080fd5b50565b6134488161330c565b811461345357600080fd5b5056fea26469706673582212207ee70151e162e0b655ae3ffa6b8a362202eca415553c256e051b0b0ac38b389964736f6c63430008000033",
  "immutableReferences": {},
  "source": "// SPDX-License-Identifier: MIT\r\npragma solidity >=0.8.0;\r\n\r\n// importing the actors and ownable\r\nimport \"../coffeecore/Ownable.sol\";\r\nimport \"../coffeeaccesscontrol/FarmerRole.sol\";\r\nimport \"../coffeeaccesscontrol/DistributorRole.sol\";\r\nimport \"../coffeeaccesscontrol/RetailerRole.sol\";\r\nimport \"../coffeeaccesscontrol/ConsumerRole.sol\";\r\n\r\n// Define a contract 'Supplychain'\r\ncontract SupplyChain is\r\n    Ownable,\r\n    FarmerRole,\r\n    DistributorRole,\r\n    RetailerRole,\r\n    ConsumerRole\r\n{\r\n    // Define 'owner' and make owner payable\r\n    address payable owner;\r\n\r\n    // Define a variable called 'upc' for Universal Product Code (UPC)\r\n    uint256 upc;\r\n\r\n    // Define a variable called 'sku' for Stock Keeping Unit (SKU)\r\n    uint256 sku;\r\n\r\n    // Define a public mapping 'items' that maps the UPC to an Item.\r\n    mapping(uint256 => Item) items;\r\n\r\n    // Define a public mapping 'itemsHistory' that maps the UPC to an array of TxHash,\r\n    // that track its journey through the supply chain -- to be sent from DApp.\r\n    mapping(uint256 => string[]) itemsHistory;\r\n\r\n    // Define enum 'State' with the following values:\r\n    enum State {\r\n        Harvested, // 0\r\n        Processed, // 1\r\n        Packed, // 2\r\n        ForSale, // 3\r\n        Sold, // 4\r\n        Shipped, // 5\r\n        Received, // 6\r\n        Purchased // 7\r\n    }\r\n\r\n    State constant defaultState = State.Harvested;\r\n\r\n    // Define a struct 'Item' with the following fields:\r\n    struct Item {\r\n        uint256 sku; // Stock Keeping Unit (SKU)\r\n        uint256 upc; // Universal Product Code (UPC), generated by the Farmer, goes on the package, can be verified by the Consumer\r\n        address ownerID; // Metamask-Ethereum address of the current owner as the product moves through 8 stages\r\n        address originFarmerID; // Metamask-Ethereum address of the Farmer\r\n        string originFarmName; // Farmer Name\r\n        string originFarmInformation; // Farmer Information\r\n        string originFarmLatitude; // Farm Latitude\r\n        string originFarmLongitude; // Farm Longitude\r\n        uint256 productID; // Product ID potentially a combination of upc + sku\r\n        string productNotes; // Product Notes\r\n        uint256 productPrice; // Product Price\r\n        State itemState; // Product State as represented in the enum above\r\n        address distributorID; // Metamask-Ethereum address of the Distributor\r\n        address retailerID; // Metamask-Ethereum address of the Retailer\r\n        address consumerID; // Metamask-Ethereum address of the Consumer\r\n    }\r\n\r\n    // Define 8 events with the same 8 state values and accept 'upc' as input argument\r\n    event Harvested(uint256 upc);\r\n    event Processed(uint256 upc);\r\n    event Packed(uint256 upc);\r\n    event ForSale(uint256 upc);\r\n    event Sold(uint256 upc);\r\n    event Shipped(uint256 upc);\r\n    event Received(uint256 upc);\r\n    event Purchased(uint256 upc);\r\n\r\n    // Define a modifer that checks to see if msg.sender == owner of the contract\r\n    // modifier onlyOwner() {\r\n    //   require(msg.sender == owner);\r\n    //   _;\r\n    // }\r\n\r\n    // Define a modifer that verifies the Caller\r\n    modifier verifyCaller(address _address) {\r\n        require(msg.sender == _address);\r\n        _;\r\n    }\r\n\r\n    // Define a modifier that checks if the paid amount is sufficient to cover the price\r\n    modifier paidEnough(uint256 _price) {\r\n        require(msg.value >= _price);\r\n        _;\r\n    }\r\n\r\n    // Define a modifier that checks the price and refunds the remaining balance\r\n    modifier checkValue(uint256 _upc) {\r\n        _;\r\n        uint256 _price = items[_upc].productPrice;\r\n        uint256 amountToReturn = msg.value - _price;\r\n        payable (items[_upc].consumerID).transfer(amountToReturn);\r\n    }\r\n\r\n    // Define a modifier that checks if an item.state of a upc is Harvested\r\n    modifier harvested(uint256 _upc) {\r\n        require(items[_upc].itemState == State.Harvested, \"Item not harvested\");\r\n        _;\r\n    }\r\n\r\n    // Define a modifier that checks if an item.state of a upc is Processed\r\n    modifier processed(uint256 _upc) {\r\n        require(items[_upc].itemState == State.Processed, \"Item not processed\");\r\n        _;\r\n    }\r\n\r\n    // Define a modifier that checks if an item.state of a upc is Packed\r\n    modifier packed(uint256 _upc) {\r\n        require(items[_upc].itemState == State.Packed, \"Item not packed\");\r\n        _;\r\n    }\r\n\r\n    // Define a modifier that checks if an item.state of a upc is ForSale\r\n    modifier forSale(uint256 _upc) {\r\n        require(items[_upc].itemState == State.ForSale, \"Item not for sale\");\r\n        _;\r\n    }\r\n\r\n    // Define a modifier that checks if an item.state of a upc is Sold\r\n    modifier sold(uint256 _upc) {\r\n        require(items[_upc].itemState == State.Sold, \"Item not sold\");\r\n        _;\r\n    }\r\n\r\n    // Define a modifier that checks if an item.state of a upc is Shipped\r\n    modifier shipped(uint256 _upc) {\r\n        require(items[_upc].itemState == State.Shipped, \"Item not shipped\");\r\n        _;\r\n    }\r\n\r\n    // Define a modifier that checks if an item.state of a upc is Received\r\n    modifier received(uint256 _upc) {\r\n        require(items[_upc].itemState == State.Received, \"Item not received\");\r\n        _;\r\n    }\r\n\r\n    // Define a modifier that checks if an item.state of a upc is Purchased\r\n    modifier purchased(uint256 _upc) {\r\n        require(items[_upc].itemState == State.Purchased, \"Item not purchased\");\r\n        _;\r\n    }\r\n\r\n    // In the constructor set 'owner' to the address that instantiated the contract\r\n    // and set 'sku' to 1\r\n    // and set 'upc' to 1\r\n    constructor() payable {\r\n        // owner = (msg.sender);\r\n        sku = 1;\r\n        upc = 1;\r\n    }\r\n\r\n    // Define a function 'kill' if required\r\n    // function kill() public {\r\n    //     if (msg.sender == owner()) {\r\n    //         selfdestruct(owner());\r\n    //     }\r\n    // }\r\n\r\n    // Define a function 'harvestItem' that allows a farmer to mark an item 'Harvested'\r\n    function harvestItem(\r\n        uint256 _upc,\r\n        address _originFarmerID,\r\n        string memory _originFarmName,\r\n        string memory _originFarmInformation,\r\n        string memory _originFarmLatitude,\r\n        string memory _originFarmLongitude,\r\n        string memory _productNotes\r\n    ) public onlyFarmer {\r\n        // Add the new item as part of Harvest\r\n        items[_upc].upc = _upc;\r\n        items[_upc].sku = sku;\r\n        // items[_upc].ownerID = msg.sender;\r\n        items[_upc].ownerID = _originFarmerID;\r\n        items[_upc].originFarmerID = _originFarmerID;\r\n        items[_upc].originFarmName = _originFarmName;\r\n        items[_upc].originFarmInformation = _originFarmInformation;\r\n        items[_upc].originFarmLatitude = _originFarmLatitude;\r\n        items[_upc].originFarmLongitude = _originFarmLongitude;\r\n        items[_upc].productID = _upc + sku; // Product ID is a combo of upc + sku\r\n        items[_upc].productNotes = _productNotes;\r\n        items[_upc].itemState = State.Harvested;\r\n\r\n        // Increment sku\r\n        sku = sku + 1;\r\n        // Emit the appropriate event\r\n        emit Harvested(_upc);\r\n    }\r\n\r\n    // Define a function 'processtItem' that allows a farmer to mark an item 'Processed'\r\n    function processItem(uint256 _upc)\r\n        public\r\n        // Call modifier to check if upc has passed previous supply chain stage\r\n        harvested(_upc)\r\n        // Call modifier to verify caller of this function\r\n        verifyCaller(items[_upc].originFarmerID)\r\n    {\r\n        // Update the appropriate fields\r\n        items[_upc].itemState = State.Processed;\r\n        // Emit the appropriate event\r\n        emit Processed(_upc);\r\n    }\r\n\r\n    // Define a function 'packItem' that allows a farmer to mark an item 'Packed'\r\n    function packItem(uint256 _upc)\r\n        public\r\n        // Call modifier to check if upc has passed previous supply chain stage\r\n        processed(_upc)\r\n        // Call modifier to verify caller of this function\r\n        verifyCaller(items[_upc].originFarmerID)\r\n    {\r\n        // Update the appropriate fields\r\n        items[_upc].itemState = State.Packed;\r\n        // Emit the appropriate event\r\n        emit Packed(_upc);\r\n    }\r\n\r\n    // Define a function 'sellItem' that allows a farmer to mark an item 'ForSale'\r\n    function sellItem(uint256 _upc, uint256 _price)\r\n        public\r\n        // Call modifier to check if upc has passed previous supply chain stage\r\n        packed(_upc)\r\n        // Call modifier to verify caller of this function\r\n        verifyCaller(items[_upc].originFarmerID)\r\n    {\r\n        // Update the appropriate fields\r\n        items[_upc].itemState = State.ForSale;\r\n        items[_upc].productPrice = _price;\r\n        // Emit the appropriate event\r\n        emit ForSale(_upc);\r\n    }\r\n\r\n    // Define a function 'buyItem' that allows the disributor to mark an item 'Sold'\r\n    // Use the above defined modifiers to check if the item is available for sale, if the buyer has paid enough,\r\n    // and any excess ether sent is refunded back to the buyer\r\n    function buyItem(uint256 _upc)\r\n        public\r\n        payable\r\n        // Call modifier to check if upc has passed previous supply chain stage\r\n        forSale(_upc)\r\n\r\n        // Call modifer to check if buyer has paid enough\r\n        paidEnough(items[_upc].productPrice)\r\n\r\n        // Call modifer to send any excess ether back to buyer\r\n        checkValue(_upc)\r\n    {\r\n        // Update the appropriate fields - ownerID, distributorID, itemState\r\n        items[_upc].ownerID = msg.sender;\r\n        items[_upc].distributorID = msg.sender;\r\n        items[_upc].itemState = State.Sold;\r\n\r\n        // Transfer money to farmer\r\n        payable(items[_upc].distributorID).transfer(items[_upc].productPrice);\r\n\r\n        // emit the appropriate event\r\n        emit Sold(_upc);\r\n    }\r\n\r\n    // Define a function 'shipItem' that allows the distributor to mark an item 'Shipped'\r\n    // Use the above modifers to check if the item is sold\r\n    function shipItem(uint256 _upc)\r\n        public\r\n        // Call modifier to check if upc has passed previous supply chain stage\r\n        sold(_upc)\r\n        // Call modifier to verify caller of this function\r\n        verifyCaller(items[_upc].distributorID)\r\n    {\r\n        // Update the appropriate fields\r\n        items[_upc].itemState = State.Shipped;\r\n        // Emit the appropriate event\r\n        emit Shipped(_upc);\r\n    }\r\n\r\n    // Define a function 'receiveItem' that allows the retailer to mark an item 'Received'\r\n    // Use the above modifiers to check if the item is shipped\r\n    // Call modifier to check if upc has passed previous supply chain stage\r\n    // Access Control List enforced by calling Smart Contract / DApp\r\n    function receiveItem(uint256 _upc) public shipped(_upc) onlyRetailer {\r\n        // Update the appropriate fields - ownerID, retailerID, itemState\r\n        items[_upc].ownerID = msg.sender;\r\n        items[_upc].retailerID = msg.sender;\r\n        items[_upc].itemState = State.Received;\r\n        // Emit the appropriate event\r\n        emit Received(_upc);\r\n    }\r\n\r\n    // Define a function 'purchaseItem' that allows the consumer to mark an item 'Purchased'\r\n    // Use the above modifiers to check if the item is received\r\n    function purchaseItem(uint256 _upc)\r\n        public\r\n        // Call modifier to check if upc has passed previous supply chain stage\r\n        received(_upc)\r\n        // Access Control List enforced by calling Smart Contract / DApp\r\n        onlyConsumer\r\n    {\r\n        // Update the appropriate fields - ownerID, consumerID, itemState\r\n        items[_upc].ownerID = msg.sender;\r\n        items[_upc].consumerID = msg.sender;\r\n        items[_upc].itemState = State.Purchased;\r\n        // Emit the appropriate event\r\n        emit Purchased(_upc);\r\n    }\r\n\r\n    // Define a function 'fetchItemBufferOne' that fetches the data\r\n    function fetchItemBufferOne(uint256 _upc)\r\n        public\r\n        view\r\n        returns (\r\n            uint256 itemSKU,\r\n            uint256 itemUPC,\r\n            address ownerID,\r\n            address originFarmerID,\r\n            string memory originFarmName,\r\n            string memory originFarmInformation,\r\n            string memory originFarmLatitude,\r\n            string memory originFarmLongitude\r\n        )\r\n    {\r\n        // Assign values to the 8 parameters\r\n        itemSKU = items[_upc].sku;\r\n        itemUPC = items[_upc].upc;\r\n        ownerID = items[_upc].ownerID;\r\n        originFarmerID = items[_upc].originFarmerID;\r\n        originFarmName = items[_upc].originFarmName;\r\n        originFarmInformation = items[_upc].originFarmInformation;\r\n        originFarmLatitude = items[_upc].originFarmLatitude;\r\n        originFarmLongitude = items[_upc].originFarmLongitude;\r\n\r\n        return (\r\n            itemSKU,\r\n            itemUPC,\r\n            ownerID,\r\n            originFarmerID,\r\n            originFarmName,\r\n            originFarmInformation,\r\n            originFarmLatitude,\r\n            originFarmLongitude\r\n        );\r\n    }\r\n\r\n    // Define a function 'fetchItemBufferTwo' that fetches the data\r\n    function fetchItemBufferTwo(uint256 _upc)\r\n        public\r\n        view\r\n        returns (\r\n            uint256 itemSKU,\r\n            uint256 itemUPC,\r\n            uint256 productID,\r\n            string memory productNotes,\r\n            uint256 productPrice,\r\n            uint256 itemState,\r\n            address distributorID,\r\n            address retailerID,\r\n            address consumerID\r\n        )\r\n    {\r\n        // Assign values to the 9 parameters\r\n        itemSKU = items[_upc].sku;\r\n        itemUPC = items[_upc].upc;\r\n        productID = items[_upc].productID;\r\n        productNotes = items[_upc].productNotes;\r\n        productPrice = items[_upc].productPrice;\r\n        itemState = uint256(items[_upc].itemState);\r\n        distributorID = items[_upc].distributorID;\r\n        retailerID = items[_upc].retailerID;\r\n        consumerID = items[_upc].consumerID;\r\n\r\n        return (\r\n            itemSKU,\r\n            itemUPC,\r\n            productID,\r\n            productNotes,\r\n            productPrice,\r\n            itemState,\r\n            distributorID,\r\n            retailerID,\r\n            consumerID\r\n        );\r\n    }\r\n}\r\n",
  "sourcePath": "H:\\Worx\\Blockchain\\Udacity\\Project 3 - Supply Chain\\supplyChain\\project-6\\contracts\\coffeebase\\SupplyChain.sol",
  "compiler": {
    "name": "solc",
    "version": "0.8.0+commit.c7dfd78e.Emscripten.clang"
  },
  "schemaVersion": "3.4.9",
  "updatedAt": "2022-08-30T09:38:20.459Z",
  "networkType": "ethereum",
  "devdoc": {
    "kind": "dev",
    "methods": {},
    "version": 1
  },
  "userdoc": {
    "kind": "user",
    "methods": {
      "_owner()": {
        "notice": "Look up the address of the owner"
      },
      "isOwner()": {
        "notice": "Check if the calling address is the owner of the contract"
      },
      "renounceOwnership()": {
        "notice": "Define a function to renounce ownerhip"
      },
      "transferOwnership(address)": {
        "notice": "Define a public function to transfer ownership"
      }
    },
    "version": 1
  }
}